:020000040800F2
:1000000000280020F9120008091200080F12000849
:10001000151200081B120008211200080000000041
:10002000000000000000000000000000271200088F
:1000300033120008000000003F1200084B120008B5
:100040004113000841130008411300084113000840
:100050004113000841130008411300084113000830
:100060004113000841130008411300084113000820
:100070004113000841130008411300084113000810
:100080004113000841130008411300084113000800
:1000900041130008411300084113000841130008F0
:1000A00041130008411300084113000841130008E0
:1000B0005912000841130008000000004113000815
:1000C0004113000800000000000000004113000878
:1000D0000000000041130008411300080000000068
:1000E00041130008411300084113000800000000FC
:1000F0000000000000000000000000000000000000
:0C01000000000000000000005FF808F1A3
:10010C0010B5054C237833B9044B13B10448AFF345
:10011C0000800123237010BD680000200000000047
:10012C007029000808B5034B1BB103490348AFF312
:10013C00008008BD000000006C0000207029000841
:10014C0080B483B000AF7860044A7B68012142F828
:10015C00231000BF0C37BD4680BC704784000020C4
:10016C0080B400AF064B1B68012B04D1044B00225A
:10017C001A60012300E000231846BD4680BC70477E
:10018C008400002080B400AF064B5B68012B04D1C7
:10019C00044B00225A60012300E000231846BD46A0
:1001AC0080BC70478400002080B400AF064B9B6875
:1001BC00012B04D1044B00229A60012300E00023A0
:1001CC001846BD4680BC70478400002080B582B0C4
:1001DC0000AF00237B6073E03D4A7B6852F823201C
:1001EC003C497B6841F823203B4A7B6852F823202A
:1001FC0037497B6841F82320384A7B6832F8133042
:10020C001946374801F082FB03461946324A7B688F
:10021C0042F823102F4A7B6852F823202C497B6824
:10022C0051F823309A4248D1294A7B6852F823204E
:10023C0029497B6851F823309A423ED1294A7B6880
:10024C0052F8232024497B6851F823309A4217D066
:10025C00214A7B6852F8232022497B6841F82320ED
:10026C001D4A7B6852F82330002B26D17868FFF7A3
:10027C0067FF1D4A7B684FF4FA6142F823101CE0BB
:10028C00194A7B6852F823305A1E17497B6841F88B
:10029C002320154A7B6852F82330002B0DDC0E4AC4
:1002AC007B6852F82330002B02D17868FFF748FFA7
:1002BC000D4A7B68322142F823107B6801337B6046
:1002CC007B68022B88DD00BF00BF0837BD4680BDB0
:1002DC000C0000200000002018000020300000203E
:1002EC0000080140240000209000002080B500AFE1
:1002FC00A24B1B68013B042B00F2348101A252F883
:10030C0023F000BF2503000869030008E903000877
:10031C0071040008ED04000800227E21984801F0C9
:10032C000CFB984B1B68984A1360964B5B68974A7A
:10033C001360944B9B68964A1360904B02221A6090
:10034C004FF47A7000F006FEFA2000F01DFEFFF765
:10035C0007FFFFF717FFFFF727FF0CE100F086FF01
:10036C00FFF7FEFE0346012B0FD1844B0D221A60C2
:10037C0000F0D2F942F2107000F020FE4FF4FA7047
:10038C0000F036FEFA2000F04DFE824B1B68012B6C
:10039C0004D100F003F9FA2000F0F6FD7E4B1B6847
:1003AC00012B40F0E180784B1B68013B764A1360CF
:1003BC00774B1B68013B764A13604FF47A7000F060
:1003CC00C9FD734B1B68002B40F0CE806B4B032296
:1003DC001A606C4B9B686E4A1360C5E000F056FFC8
:1003EC00FFF7BEFE0346012B0FD1644B0D221A60A2
:1003FC0000F092F942F2107000F0E0FD4FF4FA7048
:10040C0000F0F6FDFA2000F00DFE624B1B68012B8C
:10041C0004D100F0C3F8FA2000F0B6FD5E4B1B6867
:10042C00012B40F0A380584B1B68013B564A1360CC
:10043C00564B1B68013B554A13604FF47A7000F021
:10044C0089FD514B1B68002B40F090804B4B0422D4
:10045C001A604C4B1B684C4A13604A4B5B684B4A06
:10046C00136083E000F022FFFFF77AFE0346012BB6
:10047C000FD1424B0D221A6000F04EF942F210706F
:10048C0000F09CFD4FF4FA7000F0B2FDFA2000F081
:10049C00C9FD404B1B68012B04D100F07FF8FA20FA
:1004AC0000F072FD3C4B1B68012B61D1364B1B6875
:1004BC00013B354A1360364B1B68013B344A1360D1
:1004CC004FF47A7000F046FD314B1B68002B4FD176
:1004DC002A4B05221A602B4B9B682D4A136047E070
:1004EC0000F0F4FEFFF73CFE0346012B0FD1234B2B
:1004FC000D221A6000F010F942F2107000F05EFD4F
:10050C004FF4FA7000F074FDFA2000F08BFD214BD3
:10051C001B68012B04D100F041F8FA2000F034FDE7
:10052C001D4B1B68012B25D1174B1B68013B164A31
:10053C001360164B1B68013B144A13604FF47A701E
:10054C0000F008FD104B1B68002B13D10B4B022243
:10055C001A600C4B1B680C4A13600A4B5B680B4A05
:10056C00136007E000BF06E000BF04E000BF02E03C
:10057C0000BF00E000BF00BF80BD00BFB80000207E
:10058C000008014038000020A8000020AC0000202A
:10059C00B0000020C4000020BC00002080B500AFDB
:1005AC00544B1B68022B0CD0524B1B68032B08D0EE
:1005BC00504B1B68042B04D04E4B1B68052B40F092
:1005CC0095804C4B1B68022B13D04A4B1B68032B9A
:1005DC000FD0484B1B68042B08D0464B1B68052BCF
:1005EC0002D1454B1B6806E0002304E0434B1B681B
:1005FC0001E0434B1B68434A13603E4B1B68022BC4
:10060C0013D03C4B1B68032B0CD03A4B1B68042BB0
:10061C0003D0384B1B68052B02D1394B1B6806E005
:10062C00002304E0344B1B6801E0344B1B68364A52
:10063C001360364B1B68002B02D0012B26D056E0E2
:10064C0000224FF42071324801F077F901224FF467
:10065C00A0612F4801F071F92A4B1B682D4A82FBCF
:10066C0003129210DB17D31A184600F029FA264B06
:10067C001B68284A82FB03129210DB17D31A184608
:10068C0000F0ACFA214B01221A6030E001224FF449
:10069C0020711F4801F051F900224FF4A0611C4851
:1006AC0001F04BF9174B1A681A4B83FB0213991084
:1006BC00D317C91A0B469B000B445B00D11A084692
:1006CC0000F0FEF9104B1A68124B83FB02139910C1
:1006DC00D317C91A0B469B000B445B00D11A084672
:1006EC0000F07CFA094B00221A6000E000BF00BF4A
:1006FC0080BD00BFB8000020AC000020B00000207E
:10070C00A8000020A0000020A40000209C000020D5
:10071C00000801406766666680B500AF00227E2146
:10072C00024801F00AF900BF80BD00BF000801407B
:10073C0080B500AF9A4B1B680F2B00F0CE800F2BAF
:10074C0000F325810D2B02D00E2B61D01FE1954BB0
:10075C001B68012B07D11221934801F006F94FF4C5
:10076C00FA7000F045FCFFF70DFD0346012B08D194
:10077C008E4B1B6801338D4A13608C4B1B688C4A63
:10078C001360FFF711FD0346012B14D1894B1A6836
:10079C00894B1B681A44854B1B689A420BD1834BBF
:1007AC001B68864A1360844B1B68844A5360814BD8
:1007BC001B68824A9360824B1B68012B04D100F0AA
:1007CC0003F9FA2000F02EFC7E4B1B68012B06D19E
:1007DC00734B01221A60794B1B68744A1360FFF744
:1007EC00BFFC0346012B40F0D4806D4B0E221A60E7
:1007FC0042F2107000F0E2FB4FF4FA7000F0F8FBDC
:10080C00FA2000F00FFC6C4B1B68694A1360C0E0C7
:10081C00644B1B68012B0CD12421634801F0A5F813
:10082C0000225A21604801F088F84FF4FA7000F069
:10083C00DFFBFFF7A7FC0346012B08D15E4B1B68BF
:10084C0001335D4A13605C4B1B68594A1360FFF718
:10085C00ABFC0346012B14D1574B1A68554B1B6844
:10086C001A44524B1B689A420BD1534B1B68534A88
:10087C0053604E4B1B68514A13604E4B1B684F4ADA
:10088C0093604F4B1B68012B04D100F09DF8FA20AC
:10089C0000F0C8FB4B4B1B68012B06D1404B0122CF
:1008AC001A60464B5B68444A1360FFF759FC0346D9
:1008BC00012B70D13A4B0F221A6042F2107000F0EB
:1008CC007DFB4FF4FA7000F093FBFA2000F0AAFBCA
:1008DC00384B1B68364A13605DE0324B1B68012BAA
:1008EC000CD14821304801F040F8002236212E4826
:1008FC0001F023F84FF4FA7000F07AFBFFF742FC9A
:10090C000346012B08D12B4B1B680133294A13607A
:10091C00284B1B68264A1360FFF746FC0346012B45
:10092C0014D1254B1A68234B1B681A441F4B1B68A8
:10093C009A420BD11F4B1B68204A93601B4B1B68C0
:10094C001E4A13601C4B1B681C4A53601C4B1B68D3
:10095C00012B04D100F038F8FA2000F063FB194B9E
:10096C001B68012B06D10E4B01221A60134B9B689E
:10097C00104A1360FFF7F4FB0346012B0DD1084B13
:10098C0001221A6042F2107000F018FB05E000BF63
:10099C0004E000BF02E000BF00E000BF00BF80BD6C
:1009AC00B8000020D40000200008014044000020C2
:1009BC00500000204C00002048000020380000208F
:1009CC00DC000020CC00002080B500AF364B1B684B
:1009DC000D2B07D0344B1B680E2B03D0324B1B68EE
:1009EC000F2B5ED1314B1B68002B02D0012B1ED07C
:1009FC0058E000224FF420712D4800F09EFF012298
:100A0C004FF4A0612A4800F098FF2A4B1B682A4A31
:100A1C0082FB03129210DB17D31A184600F050F821
:100A2C00002000F0DBF8214B01221A603AE01E4B4B
:100A3C001B680D2B0DD01C4B1B680E2B07D01A4BB3
:100A4C001B680F2B01D1042304E0012302E00323D4
:100A5C0000E00223194A136001224FF4207114485C
:100A6C0000F06BFF00224FF4A061114800F065FF0D
:100A7C00104B1A68104B83FB02139910D317C91A29
:100A8C000B469B000B445B00D11A084600F018F88B
:100A9C000A4B1B68184600F0A1F8044B00221A60A0
:100AAC0000E000BF00BF80BDB8000020B4000020F3
:100ABC000008014050000020676666665400002064
:100ACC0080B582B000AF78607B68092B7FD801A21B
:100ADC0052F823F0090B00081F0B0008350B000817
:100AEC004B0B0008610B0008770B00088D0B0008FE
:100AFC00A30B0008B90B0008C50B0008012240210C
:100B0C00354800F01AFF00223F21334800F015FF52
:100B1C005EE001227921304800F00FFF002206210F
:100B2C002D4800F00AFF53E0012224212A4800F04E
:100B3C0004FF00225B21284800F0FFFE48E0012260
:100B4C003021254800F0F9FE00224F21224800F008
:100B5C00F4FE3DE0012219211F4800F0EEFE0022B8
:100B6C0066211D4800F0E9FE32E0012212211A48EC
:100B7C0000F0E3FE00226D21174800F0DEFE27E0B6
:100B8C0001220221144800F0D8FE00227D211248D7
:100B9C0000F0D3FE1CE0012278210F4800F0CDFEBE
:100BAC00002207210C4800F0C8FE11E000227F2132
:100BBC00094800F0C2FE0BE001221021064800F0AB
:100BCC00BCFE00226F21044800F0B7FE00E000BF1D
:100BDC0000BF0837BD4680BD000C014080B582B017
:100BEC0000AF78607B68092B00F2948001A252F868
:100BFC0023F000BF290C0008430C00085D0C000812
:100C0C00770C0008910C0008AB0C0008C50C000810
:100C1C00DF0C0008F90C0008070D000801224FF446
:100C2C0000513F4800F089FE00224FF4FC513C4833
:100C3C0000F083FE6FE001224FF47251384800F04F
:100C4C007CFE00224FF44071354800F076FE62E0E5
:100C5C0001224FF49051324800F06FFE00224FF405
:100C6C0036512F4800F069FE55E001224FF4C05177
:100C7C002B4800F062FE00224FF41E51284800F071
:100C8C005CFE48E001224FF44861254800F055FE17
:100C9C0000224FF44C51224800F04FFE3BE0012261
:100CAC004FF410611E4800F048FE00224FF45A51D8
:100CBC001B4800F042FE2EE001224FF480711848D0
:100CCC0000F03BFE00224FF47A51154800F035FE3F
:100CDC0021E001224FF47051114800F02EFE002249
:100CEC004FF4C2710E4800F028FE14E000224FF4BD
:100CFC007E510B4800F021FE0DE001224FF4006103
:100D0C00074800F01AFE00224FF45E51044800F030
:100D1C0014FE00E000BF00BF0837BD4680BD00BF19
:100D2C00000C014080B500AF00F006FB00F014F899
:100D3C0000F09AF800F04CF8054801F05BFA054B0E
:100D4C0001221A60FFF7D2FAFFF7F2FCFAE700BFB4
:100D5C00E8000020B800002080B590B000AF07F18B
:100D6C00180328220021184601F0F4FD3B1D002237
:100D7C001A605A609A60DA601A610223BB6101231F
:100D8C00BB621023FB6200237B6307F11803184638
:100D9C0000F004FE0346002B01D000F0D5F80F2321
:100DAC007B600023BB600023FB6000233B610023BE
:100DBC007B613B1D0021184601F070F80346002BA7
:100DCC0001D000F0C1F800BF4037BD4680BD000027
:100DDC0080B586B000AF07F1080300221A605A6094
:100DEC009A60DA603B4600221A605A601D4B4FF045
:100DFC0080421A601B4B41F63F725A60194B00221D
:100E0C009A60184B0922DA60164B00221A61154BB6
:100E1C0000229A61134801F09DF90346002B01D082
:100E2C0000F092F84FF48053BB6007F108031946A9
:100E3C000C4801F01BFB0346002B01D000F084F89A
:100E4C0000233B6000237B603B461946054801F0BC
:100E5C00F3FC0346002B01D000F076F800BF1837E6
:100E6C00BD4680BDE800002080B586B000AF07F11C
:100E7C00080300221A605A609A60DA60294B9B6959
:100E8C00284A43F004039361264B9B6903F0040347
:100E9C007B607B68234B9B69224A43F00803936178
:100EAC00204B9B6903F008033B603B68002240F633
:100EBC00FE711D4800F041FD002243F6FF711B48F6
:100ECC0000F03BFD40F6FE73BB600123FB6000238A
:100EDC003B6102237B6107F108031946124800F0BD
:100EEC009BFB43F6FF73BB600123FB6000233B615C
:100EFC0002237B6107F1080319460C4800F08CFBB8
:100F0C004FF46043BB600023FB6001233B6107F19E
:100F1C0008031946044800F07FFB00BF1837BD4694
:100F2C0080BD00BF0010024000080140000C0140D1
:100F3C0080B582B000AF786000F08EF8FFF746F90C
:100F4C0000BF0837BD4680BD80B400AF72B600BF8D
:100F5C00FEE7000080B483B000AF7860074B1B68DD
:100F6C007A6892FBF3F3064A1360064B00221A6070
:100F7C0000BF0C37BD4680BC704700BF5800002036
:100F8C00C0000020BC00002080B483B000AF7860AB
:100F9C00074B1B687A6892FBF3F3064A1360064B07
:100FAC0000221A6000BF0C37BD4680BC704700BFE2
:100FBC0058000020C8000020C400002080B483B07A
:100FCC0000AF7860074B1B687A6892FBF3F3064A14
:100FDC001360064B00221A6000BF0C37BD4680BC64
:100FEC00704700BF58000020D0000020CC0000202B
:100FFC0080B483B000AF7860074B1B687A6892FBB3
:10100C00F3F3064A1360064B00221A6000BF0C373C
:10101C00BD4680BC704700BF58000020D80000209F
:10102C00D400002080B483B000AF7860074B1B68FD
:10103C007A6892FBF3F3064A1360064B00221A609F
:10104C0000BF0C37BD4680BC704700BF5800002065
:10105C00E0000020DC00002080B400AF314B1B68A6
:10106C00002B0BDD2F4B1B68013B2E4A13602D4BC5
:10107C001B68002B02DC2C4B01221A602B4B1B68CB
:10108C00002B0BDD294B1B68013B284A1360274BB7
:10109C001B68002B02DC264B01221A60254B1B68B7
:1010AC00002B0BDD234B1B68013B224A1360214BA9
:1010BC001B68002B02DC204B01221A601F4B1B68A3
:1010CC00002B0BDD1D4B1B68013B1C4A13601B4B9B
:1010DC001B68002B02DC1A4B01221A60194B1B688F
:1010EC00002B0BDD174B1B68013B164A1360154B8D
:1010FC001B68002B02DC144B01221A60134B1B687B
:10110C00002B0BDD114B1B68013B104A13600F4B7E
:10111C001B68002B02DC0D4B01221A6000BFBD4680
:10112C0080BC7047C0000020BC000020C80000201C
:10113C00C4000020D0000020CC000020D8000020EB
:10114C00D4000020E0000020DC000020E40000209F
:10115C0080B485B000AF154B9B69144A43F0010372
:10116C009361124B9B6903F00103BB60BB680F4B8F
:10117C00DB690E4A43F08053D3610C4BDB6903F0FF
:10118C0080537B607B680A4B5B68FB60FB6823F0D9
:10119C00E063FB60FB6843F08063FB60044AFB6820
:1011AC00536000BF1437BD4680BC7047001002402E
:1011BC000000014080B584B000AF78607B681B688C
:1011CC00B3F1804F13D10C4BDB690B4A43F0010395
:1011DC00D361094BDB6903F00103FB60FB68002260
:1011EC0000211C2000F0E1F91C2000F0FAF900BFEE
:1011FC001037BD4680BD00BF0010024080B400AF68
:10120C00FEE780B400AFFEE780B400AFFEE780B429
:10121C0000AFFEE780B400AFFEE780B400AF00BFC4
:10122C00BD4680BC704780B400AF00BFBD4680BCDB
:10123C00704780B400AF00BFBD4680BC704780B51E
:10124C0000AF00F0BFF800BF80BD000080B500AF5C
:10125C00024801F01BF800BF80BD00BFE800002071
:10126C0080B400AF00BFBD4680BC704780B500AFF6
:10127C0001224221044800F060FB00223C2102487C
:10128C0000F05BFB00BF80BD0008014080B500AFE3
:10129C0001222221044800F050FB00225C2102486C
:1012AC0000F04BFB00BF80BD0008014080B500AFD3
:1012BC0001221821044800F040FB0022662102485C
:1012CC0000F03BFB00BF80BD0008014080B500AFC3
:1012DC0001221421044800F030FB00226A2102484C
:1012EC0000F02BFB00BF80BD00080140FFF7B8FFEA
:1012FC000B480C490C4A002302E0D458C450043368
:10130C00C4188C42F9D3094A094C002301E013603C
:10131C000432A242FBD301F0F9FAFFF703FD704748
:10132C000000002068000020B4290008680000209C
:10133C0034010020FEE7000080B500AF084B1B68AD
:10134C00074A43F010031360032000F023F90F2029
:10135C0000F008F8FFF7FCFE0023184680BD00BF24
:10136C000020024080B582B000AF7860124B1A6842
:10137C00124B1B7819464FF47A73B3FBF1F3B2FBA3
:10138C00F3F3184600F03BF90346002B01D0012380
:10139C000EE07B680F2B0AD8002279684FF0FF30E3
:1013AC0000F003F9064A7B681360002300E0012378
:1013BC0018460837BD4680BD5C0000206400002044
:1013CC006000002080B400AF054B1B781A46054B1B
:1013DC001B681344034A136000BFBD4680BC7047B2
:1013EC00640000203001002080B400AF024B1B6869
:1013FC001846BD4680BC70473001002080B485B0D3
:10140C0000AF78607B6803F00703FB600C4BDB6874
:10141C00BB60BA684FF6FF031340BB60FB681A024F
:10142C00BB68134343F0BF6343F40033BB60044A0F
:10143C00BB68D36000BF1437BD4680BC704700BF8B
:10144C0000ED00E080B400AF044BDB681B0A03F036
:10145C0007031846BD4680BC704700BF00ED00E096
:10146C0080B483B000AF0346FB7197F90730002BB3
:10147C000BDBFB7903F01F02064997F907305B0978
:10148C00012000FA02F241F8232000BF0C37BD46C0
:10149C0080BC704700E100E080B483B000AF03462D
:1014AC003960FB7197F90730002B0ADB3B68DAB225
:1014BC000C4997F907301201D2B20B4483F8002380
:1014CC000AE03B68DAB20849FB7903F00F03043BEE
:1014DC001201D2B20B441A7600BF0C37BD4680BC49
:1014EC00704700BF00E100E000ED00E080B489B07F
:1014FC0000AFF860B9607A60FB6803F00703FB612A
:10150C00FB69C3F10703042B28BF0423BB61FB69F0
:10151C000433062B02D9FB69033B00E000237B61FB
:10152C004FF0FF32BB6902FA03F3DA43BB681A408F
:10153C007B699A404FF0FF317B6901FA03F3D94381
:10154C007B680B40134318462437BD4680BC70475C
:10155C0080B582B000AF78607B68013BB3F1807FCF
:10156C0001D301230FE00A4A7B68013B53600F2132
:10157C004FF0FF30FFF790FF054B00229A60044BB1
:10158C0007221A60002318460837BD4680BD00BFED
:10159C0010E000E080B582B000AF78607868FFF7AB
:1015AC002DFF00BF0837BD4680BD80B586B000AFAB
:1015BC000346B9607A60FB7300237B61FFF742FF3F
:1015CC0078617A68B9687869FFF790FF024697F9F5
:1015DC000F3011461846FFF75FFF00BF1837BD46A6
:1015EC0080BD80B582B000AF0346FB7197F9073020
:1015FC001846FFF735FF00BF0837BD4680BD80B5E4
:10160C0082B000AF78607868FFF7A2FF03461846F7
:10161C000837BD4680BD000080B48BB000AF786049
:10162C00396000237B6200233B6248E101227B6A24
:10163C0002FA03F3FB613B681B68FA691340BB6158
:10164C00BA69FB699A4240F037813B685B68A34AF0
:10165C0093425ED0A14A934275D8A14A934258D086
:10166C009F4A93426FD89F4A934252D09D4A9342CD
:10167C0069D89D4A93424CD09B4A934263D89B4A6B
:10168C00934246D0994A93425DD8122B2AD8122BFA
:10169C0059D801A252F823F01F170008F9160008B8
:1016AC000B1700084D1700085317000853170008B4
:1016BC005317000853170008531700085317000856
:1016CC005317000853170008531700085317000846
:1016DC005317000853170008531700080117000888
:1016EC0015170008824A934213D02CE03B68DB6844
:1016FC003B6229E03B68DB6804333B6224E03B68D7
:10170C00DB6808333B621FE03B68DB680C333B62F1
:10171C001AE03B689B68002B02D104233B6213E068
:10172C003B689B68012B05D108233B627B68FA69F7
:10173C001A6109E008233B627B68FA695A6103E08D
:10174C0000233B6200E000BFBB69FF2B01D87B6824
:10175C0001E07B6804337B61BB69FF2B02D87B6A99
:10176C009B0002E07B6A083B9B003B617B691A682B
:10177C000F213B6901FA03F3DB431A40396A3B69D9
:10178C0001FA03F31A437B691A603B685B6803F048
:10179C008053002B00F09080564B9B69554A43F0C8
:1017AC0001039361534B9B6903F00103BB60BB685E
:1017BC00514A7B6A9B08023352F82330FB607B6AE8
:1017CC0003F003039B000F2202FA03F3DB43FA68D6
:1017DC001340FB607B68494A93420DD07B68484AB2
:1017EC00934207D07B68474A934201D1022304E01D
:1017FC00032302E0012300E000237A6A02F00302D3
:10180C0092009340FA681343FB603B497B6A9B0848
:10181C000233FA6841F823203B685B6803F48013B9
:10182C00002B06D0384B9A683749BB6913438B6041
:10183C0006E0354B9A68BB69DB43334913408B6038
:10184C003B685B6803F40013002B06D02E4BDA6860
:10185C002D49BB691343CB6006E02B4BDA68BB699F
:10186C00DB4329491340CB603B685B6803F40033CE
:10187C00002B06D0244B5A682349BB6913434B6099
:10188C0006E0214B5A68BB69DB431F4913404B6090
:10189C003B685B6803F48033002B06D01A4B1A6844
:1018AC001949BB6913430B6006E0174B1A68BB69F7
:1018BC00DB43154913400B607B6A01337B623B6849
:1018CC001A687B6A22FA03F3002B7FF4AFAE00BFD9
:1018DC0000BF2C37BD4680BC704700BF00003210E3
:1018EC000000311000002210000021100000121026
:1018FC0000001110001002400000014000080140DF
:10190C00000C0140001001400004014080B485B07F
:10191C0000AF78600B467B807B689A687B881340AD
:10192C00002B02D00123FB7301E00023FB73FB7B34
:10193C0018461437BD4680BC704780B483B000AFE6
:10194C0078600B467B8013467B707B78002B03D032
:10195C007A887B681A6103E07B881A047B681A61B9
:10196C0000BF0C37BD4680BC704780B485B000AF5B
:10197C0078600B467B807B68DB68FB607A88FB6851
:10198C0013401A04FB68D9437B880B401A437B68CD
:10199C001A6100BF1437BD4680BC704780B586B055
:1019AC0000AF78607B68002B01D101236CE27B686F
:1019BC001B6803F00103002B00F08780924B5B68DF
:1019CC0003F00C03042B0CD08F4B5B6803F00C035F
:1019DC00082B12D18C4B5B6803F48033B3F5803F3A
:1019EC000BD1894B1B6803F40033002B6CD07B6844
:1019FC005B68002B68D1012346E27B685B68B3F51A
:101A0C00803F06D1804B1B687F4A43F480331360C0
:101A1C002EE07B685B68002B0CD17B4B1B687A4AF1
:101A2C0023F480331360784B1B68774A23F48023AC
:101A3C0013601DE07B685B68B3F5A02F0CD1724B73
:101A4C001B68714A43F4802313606F4B1B686E4A0A
:101A5C0043F4803313600BE06B4B1B686A4A23F42E
:101A6C0080331360684B1B68674A23F48023136030
:101A7C007B685B68002B13D0FFF7B6FC386108E07D
:101A8C00FFF7B2FC02463B69D31A642B01D903233E
:101A9C00FAE15D4B1B6803F40033002BF0D014E02B
:101AAC00FFF7A2FC386108E0FFF79EFC02463B6999
:101ABC00D31A642B01D90323E6E1534B1B6803F4BF
:101ACC000033002BF0D100E000BF7B681B6803F0F3
:101ADC000203002B63D04C4B5B6803F00C03002B10
:101AEC000BD0494B5B6803F00C03082B1CD1464B05
:101AFC005B6803F48033002B16D1434B1B6803F057
:101B0C000203002B05D07B681B69012B01D001233C
:101B1C00BAE13D4B1B6823F0F8027B685B69DB0084
:101B2C00394913430B603AE07B681B69002B20D0CA
:101B3C00364B01221A60FFF757FC386108E0FFF7BB
:101B4C0053FC02463B69D31A022B01D903239BE1B8
:101B5C002D4B1B6803F00203002BF0D02A4B1B68A3
:101B6C0023F0F8027B685B69DB00274913430B60A9
:101B7C0015E0264B00221A60FFF736FC386108E0AE
:101B8C00FFF732FC02463B69D31A022B01D903231F
:101B9C007AE11D4B1B6803F00203002BF0D17B682C
:101BAC001B6803F00803002B3AD07B689B69002B61
:101BBC0019D0174B01221A60FFF716FC386108E0A8
:101BCC00FFF712FC02463B69D31A022B01D90323FF
:101BDC005AE10D4B5B6A03F00203002BF0D001209D
:101BEC0000F09AFA1CE00A4B00221A60FFF7FCFB8B
:101BFC0038610FE0FFF7F8FB02463B69D31A022B62
:101C0C0008D9032340E100BF00100240000042420B
:101C1C00800442429E4B5B6A03F00203002BE9D125
:101C2C007B681B6803F00403002B00F0A6800023E4
:101C3C00FB75974BDB6903F08053002B0DD1944B54
:101C4C00DB69934A43F08053D361914BDB6903F01A
:101C5C008053BB60BB680123FB758E4B1B6803F480
:101C6C008073002B18D18B4B1B688A4A43F480730A
:101C7C001360FFF7B9FB386108E0FFF7B5FB0246CC
:101C8C003B69D31A642B01D90323FDE0814B1B68FC
:101C9C0003F48073002BF0D07B68DB68012B06D13A
:101CAC007B4B1B6A7A4A43F0010313622DE07B687D
:101CBC00DB68002B0CD1764B1B6A754A23F00103B1
:101CCC001362734B1B6A724A23F0040313621CE009
:101CDC007B68DB68052B0CD16D4B1B6A6C4A43F09F
:101CEC00040313626A4B1B6A694A43F001031362D3
:101CFC000BE0674B1B6A664A23F001031362644BCB
:101D0C001B6A634A23F0040313627B68DB68002BB5
:101D1C0015D0FFF769FB38610AE0FFF765FB024657
:101D2C003B69D31A41F28832934201D90323ABE0C9
:101D3C00574B1B6A03F00203002BEED014E0FFF7A5
:101D4C0053FB38610AE0FFF74FFB02463B69D31A9D
:101D5C0041F28832934201D9032395E04C4B1B6A24
:101D6C0003F00203002BEED1FB7D012B05D1484B78
:101D7C00DB69474A23F08053D3617B68DB69002B16
:101D8C0000F08180424B5B6803F00C03082B61D0A0
:101D9C007B68DB69022B46D13F4B00221A60FFF7B0
:101DAC0023FB386108E0FFF71FFB02463B69D31A9F
:101DBC00022B01D9032367E0354B1B6803F000733A
:101DCC00002BF0D17B681B6AB3F5803F08D1304BF8
:101DDC005B6823F400327B689B682D4913434B608E
:101DEC002B4B5B6823F474127B68196A7B685B6A03
:101DFC000B43274913434B60274B01221A60FFF713
:101E0C00F3FA386108E0FFF7EFFA02463B69D31AA0
:101E1C00022B01D9032337E01D4B1B6803F0007321
:101E2C00002BF0D02FE01C4B00221A60FFF7DCFADD
:101E3C00386108E0FFF7D8FA02463B69D31A022B47
:101E4C0001D9032320E0124B1B6803F00073002B15
:101E5C00F0D118E07B68DB69012B01D1012313E081
:101E6C000B4B5B68FB60FB6803F480327B681B6A7E
:101E7C009A4206D1FB6803F470127B685B6A9A4243
:101E8C0001D0012300E0002318461837BD4680BD61
:101E9C0000100240007000406000424280B584B0E7
:101EAC0000AF786039607B68002B01D10123D0E052
:101EBC006A4B1B6803F007033A689A4210D9674BC8
:101ECC001B6823F0070265493B6813430B60634BA7
:101EDC001B6803F007033A689A4201D00123B8E06B
:101EEC007B681B6803F00203002B20D07B681B6807
:101EFC0003F00403002B05D0594B5B68584A43F49C
:101F0C00E06353607B681B6803F00803002B05D06B
:101F1C00534B5B68524A43F460535360504B5B68BD
:101F2C0023F0F0027B689B684D4913434B607B6840
:101F3C001B6803F00103002B40D07B685B68012B0E
:101F4C0007D1474B1B6803F40033002B15D1012339
:101F5C007FE07B685B68022B07D1414B1B6803F069
:101F6C000073002B09D1012373E03D4B1B6803F078
:101F7C000203002B01D101236BE0394B5B6823F08A
:101F8C0003027B685B68364913434B60FFF72CFAFE
:101F9C00F8600AE0FFF728FA0246FB68D31A41F210
:101FAC008832934201D9032353E02D4B5B6803F035
:101FBC000C027B685B689B009A42EBD1274B1B6839
:101FCC0003F007033A689A4210D2244B1B6823F0A3
:101FDC00070222493B6813430B60204B1B6803F03C
:101FEC0007033A689A4201D0012332E07B681B68F0
:101FFC0003F00403002B08D0194B5B6823F4E06258
:10200C007B68DB68164913434B607B681B6803F0E5
:10201C000803002B09D0124B5B6823F460527B68D9
:10202C001B69DB000E4913434B6000F021F802469C
:10203C000B4B5B681B0903F00F030A49CB5C22FABC
:10204C0003F3094A1360094B1B681846FFF78AF91A
:10205C00002318461037BD4680BD00BF002002404B
:10206C0000100240882900085C000020600000205D
:10207C0080B487B000AF0023FB600023BB6000235B
:10208C007B6100237B6000233B611E4B5B68FB6024
:10209C00FB6803F00C03042B02D0082B03D027E0C1
:1020AC00194B3B6127E0FB689B0C03F00F03174AAD
:1020BC00D35C7B60FB6803F48033002B10D0114B96
:1020CC005B685B0C03F00103114AD35CBB607B685B
:1020DC000D4A02FB03F2BB68B2FBF3F37B6104E035
:1020EC007B680C4A02FB03F37B617B693B6102E07A
:1020FC00054B3B6100BF3B6918461C37BD4680BC95
:10210C00704700BF0010024000127A0098290008A6
:10211C00A829000800093D0080B485B000AF7860A4
:10212C000A4B1B680A4AA2FB03235B0A7A6802FB70
:10213C0003F3FB6000BFFB685A1EFA60002BF9D159
:10214C0000BF00BF1437BD4680BC70475C00002048
:10215C00D34D621080B582B000AF78607B68002BE5
:10216C0001D1012341E07B6893F83D30DBB2002BB9
:10217C0006D17B68002283F83C207868FFF71AF8B8
:10218C007B68022283F83D207B681A687B680433E5
:10219C001946104600F056FA7B68012283F8462057
:1021AC007B68012283F83E207B68012283F83F2064
:1021BC007B68012283F840207B68012283F8412050
:1021CC007B68012283F842207B68012283F843203C
:1021DC007B68012283F844207B68012283F8452028
:1021EC007B68012283F83D20002318460837BD4642
:1021FC0080BD000080B485B000AF78607B6893F838
:10220C003D30DBB2012B01D0012335E07B6802228B
:10221C0083F83D207B681B68DA687B681B6842F09A
:10222C000102DA607B681B68164A934209D07B680E
:10223C001B68B3F1804F04D07B681B68124A934231
:10224C0011D17B681B689B6803F00703FB60FB687C
:10225C00062B10D07B681B681A687B681B6842F0E1
:10226C0001021A6007E07B681B681A687B681B68B0
:10227C0042F001021A60002318461437BD4680BC98
:10228C00704700BF002C01400004004080B584B0B2
:10229C0000AF78607B681B68DB68FB607B681B6841
:1022AC001B69BB60BB6803F00203002B20D0FB68EA
:1022BC0003F00203002B1BD07B681B686FF002023B
:1022CC001A617B6801221A777B681B689B6903F093
:1022DC000303002B03D0786800F098F905E07868C8
:1022EC0000F08BF9786800F09AF97B6800221A7775
:1022FC00BB6803F00403002B20D0FB6803F004033D
:10230C00002B1BD07B681B686FF004021A617B6882
:10231C0002221A777B681B689B6903F44073002BBD
:10232C0003D0786800F072F905E0786800F065F980
:10233C00786800F074F97B6800221A77BB6803F0A8
:10234C000803002B20D0FB6803F00803002B1BD0E4
:10235C007B681B686FF008021A617B6804221A778D
:10236C007B681B68DB6903F00303002B03D07868E0
:10237C0000F04CF905E0786800F03FF9786800F05F
:10238C004EF97B6800221A77BB6803F01003002B10
:10239C0020D0FB6803F01003002B1BD07B681B685C
:1023AC006FF010021A617B6808221A777B681B6831
:1023BC00DB6903F44073002B03D0786800F026F936
:1023CC0005E0786800F019F9786800F028F97B6866
:1023DC0000221A77BB6803F00103002B0CD0FB68BA
:1023EC0003F00103002B07D07B681B686FF0010220
:1023FC001A617868FEF79CFDBB6803F08003002B24
:10240C000CD0FB6803F08003002B07D07B681B68A3
:10241C006FF080021A61786800F06FFABB6803F005
:10242C004003002B0CD0FB6803F04003002B07D0BB
:10243C007B681B686FF040021A61786800F0F8F84E
:10244C00BB6803F02003002B0CD0FB6803F02003C7
:10245C00002B07D07B681B686FF020021A6178682C
:10246C0000F042FA00BF1037BD4680BD80B584B085
:10247C0000AF786039600023FB737B6893F83C30C5
:10248C00012B01D10223B4E07B68012283F83C20AC
:10249C007B68022283F83D207B681B689B68BB60CD
:1024AC00BB6823F07703BB60BB6823F47F43BB603E
:1024BC007B681B68BA689A603B681B68B3F5005F61
:1024CC003ED0B3F5005F00F28780B3F5805F00F07B
:1024DC008680B3F5805F7FD8702B1AD0702B7BD899
:1024EC00602B50D0602B77D8502B3CD0502B73D80E
:1024FC00402B58D0402B6FD8302B64D0302B6BD85E
:10250C00202B60D0202B67D8002B5CD0102B5AD0FE
:10251C0062E07B6818683B6899683B685A683B685E
:10252C00DB6800F06AF97B681B689B68BB60BB6862
:10253C0043F07703BB607B681B68BA689A604FE016
:10254C007B6818683B6899683B685A683B68DB682D
:10255C0000F053F97B681B689A687B681B6842F42F
:10256C0080429A603CE07B6818683B6859683B681D
:10257C00DB681A4600F0CAF87B681B6850211846C5
:10258C0000F021F92CE07B6818683B6859683B68BF
:10259C00DB681A4600F0E8F87B681B686021184677
:1025AC0000F011F91CE07B6818683B6859683B68BF
:1025BC00DB681A4600F0AAF87B681B6840211846B5
:1025CC0000F001F90CE07B681A683B681B6819463F
:1025DC00104600F0F8F803E00123FB7300E000BFA5
:1025EC007B68012283F83D207B68002283F83C2025
:1025FC00FB7B18461037BD4680BD80B483B000AF5E
:10260C00786000BF0C37BD4680BC704780B483B087
:10261C0000AF786000BF0C37BD4680BC704780B4FB
:10262C0083B000AF786000BF0C37BD4680BC7047EC
:10263C0080B483B000AF786000BF0C37BD4680BC5F
:10264C007047000080B485B000AF786039607B685B
:10265C001B68FB607B682B4A934207D07B68B3F105
:10266C00804F03D07B68284A934208D1FB6823F043
:10267C007003FB603B685B68FA681343FB607B6824
:10268C00204A934207D07B68B3F1804F03D07B681C
:10269C001D4A934208D1FB6823F44073FB603B68EE
:1026AC00DB68FA681343FB60FB6823F080023B682D
:1026BC005B691343FB607B68FA681A603B689A6835
:1026CC007B68DA623B681A687B689A627B680D4AA1
:1026DC00934203D13B681A697B681A637B680122B9
:1026EC005A617B681B6903F00103002B05D07B68E2
:1026FC001B6923F001027B681A6100BF1437BD46C9
:10270C0080BC7047002C01400004004080B487B0AE
:10271C0000AFF860B9607A60FB681B6A7B61FB688C
:10272C001B6A23F00102FB681A62FB689B693B6120
:10273C003B6923F0F0033B617B681B013A6913434F
:10274C003B617B6923F00A037B617A69BB681343A5
:10275C007B61FB683A699A61FB687A691A6200BF0F
:10276C001C37BD4680BC704780B487B000AFF860A2
:10277C00B9607A60FB681B6A7B61FB681B6A23F09B
:10278C001002FB681A62FB689B693B613B6923F48E
:10279C0070433B617B681B033A6913433B617B6964
:1027AC0023F0A0037B61BB681B017A6913437B6137
:1027BC00FB683A699A61FB687A691A6200BF1C3738
:1027CC00BD4680BC704780B485B000AF786039607E
:1027DC007B689B68FB60FB6823F07003FB603A68C6
:1027EC00FB68134343F00703FB607B68FA689A604D
:1027FC0000BF1437BD4680BC704780B487B000AFB3
:10280C00F860B9607A603B60FB689B687B617B69B0
:10281C0023F47F437B613B681A027B681A43BB68D5
:10282C0013437A6913437B61FB687A699A6000BF32
:10283C001C37BD4680BC704780B485B000AF786053
:10284C0039607B6893F83C30012B01D1022341E0C5
:10285C007B68012283F83C207B68022283F83D20B0
:10286C007B681B685B68FB607B681B689B68BB6054
:10287C00FB6823F07003FB603B681B68FA6813432A
:10288C00FB607B681B68FA685A607B681B68144A9B
:10289C00934209D07B681B68B3F1804F04D07B68EE
:1028AC001B68104A93420CD1BB6823F08003BB60B9
:1028BC003B685B68BA681343BB607B681B68BA688B
:1028CC009A607B68012283F83D207B68002283F8A4
:1028DC003C20002318461437BD4680BC704700BF0F
:1028EC00002C01400004004080B483B000AF78603D
:1028FC0000BF0C37BD4680BC704780B483B000AFBE
:10290C00786000BF0C37BD4680BC704770B50026A0
:10291C000C4D0D4C641BA410A64209D100F022F8FA
:10292C0000260A4D0A4C641BA410A64205D170BDAA
:10293C0055F8043B98470136EEE755F8043B9847A9
:10294C000136F2E7AC290008AC290008AC290008D4
:10295C00B029000803460244934200D1704703F8A3
:10296C00011BF9E7F8B500BFF8BC08BC9E467047E0
:0C297C00F8B500BFF8BC08BC9E467047D0
:102988000000000000000000010203040607080917
:1029980002030405060708090A0B0C0D0E0F101098
:0429A8000102000028
:0429AC0031010008ED
:0429B0000D0100080D
:1029B400010000000100000001000000010000000F
:1029C40001000000010000000100000001000000FF
:1029D40001000000010000000100000001000000EF
:1029E40000200040008000000500000002000000FC
:1029F40003000000050000000200000003000000C6
:102A040005000000010000000A00000000127A0026
:082A14001000000001000000A9
:04000005080012F9E4
:00000001FF
