:020000040800F2
:100000000028002035160008451500084B1500088B
:1000100051150008571500085D1500080000000084
:100020000000000000000000000000006315000850
:100030006F150008000000007B15000887150008F8
:100040007D1600087D1600087D1600087D16000844
:100050007D1600087D1600087D1600087D16000834
:100060007D1600087D1600087D1600087D16000824
:100070007D1600087D1600087D1600087D16000814
:100080007D1600087D1600087D1600087D16000804
:100090007D1600087D1600087D1600087D160008F4
:1000A0007D1600087D1600087D1600087D160008E4
:1000B000951500087D160008000000007D16000858
:1000C0007D16000800000000000000007D160008FA
:1000D000000000007D1600087D16000800000000EA
:1000E0007D1600087D1600087D160008000000003F
:1000F0000000000000000000000000000000000000
:0C01000000000000000000005FF808F1A3
:10010C0010B5054C237833B9044B13B10448AFF345
:10011C0000800123237010BD580000200000000057
:10012C00AC2C000808B5034B1BB103490348AFF3D3
:10013C00008008BD000000005C000020AC2C000812
:10014C0080B400AF064B1B68012B04D1044B00227A
:10015C001A60012300E000231846BD4680BC70479E
:10016C007400002080B400AF064B1B68012B04D137
:10017C00044B00221A60012300E000231846BD4600
:10018C0080BC70477800002080B400AF064B1B6821
:10019C00012B04D1044B00221A60012300E0002340
:1001AC001846BD4680BC70477C00002080B400AF70
:1001BC00034B01221A6000BFBD4680BC704700BFD4
:1001CC007400002080B400AF034B01221A6000BF02
:1001DC00BD4680BC704700BF7800002080B400AFE3
:1001EC00034B01221A6000BFBD4680BC704700BFA4
:1001FC007C00002080B500AF664B1B68664A13601C
:10020C00664B1B68634A13604FF40051644801F05D
:10021C001BFD03461A46614B1A605F4B1A685D4B17
:10022C001B689A422CD15B4B1A685C4B1B689A4238
:10023C0026D15C4B1A68594B1B689A420ED0574B0F
:10024C001B68584A1360554B1B68002B18D1FFF7DD
:10025C00ADFF554B4FF4FA621A6011E0524B1B681C
:10026C00013B514A1360504B1B68002B08DC4B4B75
:10027C001B68002B01D1FFF799FF4B4B32221A6000
:10028C004A4B1B684A4A13604A4B1B68474A136027
:10029C004FF48041424801F0D7FC03461A46454BC7
:1002AC001A60434B1A68414B1B689A422CD13F4B46
:1002BC001A68404B1B689A4226D13F4B1A683D4B3B
:1002CC001B689A420ED03B4B1B683B4A1360394B60
:1002DC001B68002B18D1FFF775FF384B4FF4FA62EF
:1002EC001A6011E0354B1B68013B344A1360334BE9
:1002FC001B68002B08DC2F4B1B68002B01D1FFF770
:10030C0061FF2E4B32221A602D4B1B682D4A136055
:10031C002D4B1B682A4A13604FF40041204801F012
:10032C0093FC03461A46284B1A60264B1A68244B3A
:10033C001B689A422CD1224B1A68234B1B689A4299
:10034C0026D1224B1A68204B1B689A420ED01E4BAA
:10035C001B681E4A13601C4B1B68002B18D1FFF73F
:10036C003DFF1B4B4FF4FA621A6011E0184B1B68EF
:10037C00013B174A1360164B1B68002B08DC124B11
:10038C001B68002B01D1FFF729FF114B32221A6099
:10039C0000BF80BD040000200000002008000020E9
:1003AC00000801400C000020BC00002014000020BC
:1003BC0010000020180000201C000020C0000020AD
:1003CC002400002020000020280000202C00002009
:1003DC00B800002080B500AF8A4B1B68013B042B92
:1003EC0000F2058101A252F823F000BF0D040008B1
:1003FC0039040008A90400081D0500088905000837
:10040C0000227E21804801F036FC7E4B02221A60CD
:10041C004FF47A7000F03CFFFA2000F053FFFFF726
:10042C008FFEFFF79FFEFFF7AFFEE9E001F0BCF88F
:10043C00FFF786FE0346012B08D1724B0C221A6083
:10044C0000F08AFA42F2107000F056FF6F4B1B68F6
:10045C00012B04D100F0E0F8FA2000F033FF6C4BD4
:10046C001B68012B40F0C5806A4B1B68013B694A35
:10047C001360684B9B68013B664A93604FF47A703B
:10048C0000F006FF634B9B68002B40F0B2805D4B85
:10049C0003221A605F4B03229A60AAE001F094F8E1
:1004AC00FFF74EFE0346012B08D1564B0C221A6067
:1004BC0000F052FA42F2107000F01EFF534B1B6812
:1004CC00012B04D100F0A8F8FA2000F0FBFE504BF1
:1004DC001B68012B40F08F804E4B1B68013B4D4A33
:1004EC0013604C4B5B68013B4A4A53604FF47A7083
:1004FC0000F0CEFE474B1B68002B7CD1414B0422F5
:10050C001A60444B05221A60424B02225A6072E078
:10051C0001F06AF8FFF714FE0346012B08D1394BA2
:10052C000C221A6000F018FA42F2107000F0E4FE8F
:10053C00364B1B68012B04D100F06EF8FA2000F04A
:10054C00C1FE334B1B68012B57D1324B1B68013B4F
:10055C00304A13602F4B9B68013B2E4A93604FF43B
:10056C007A7000F095FE2B4B9B68002B45D1254BE8
:10057C0005221A60274B03229A603EE001F044F8F2
:10058C00FFF7DEFD0346012B08D11E4B0C221A602F
:10059C0000F0E2F942F2107000F0AEFE1B4B1B684B
:1005AC00012B04D100F038F8FA2000F08BFE184B28
:1005BC001B68012B23D1174B1B68013B154A136099
:1005CC00144B5B68013B134A53604FF47A7000F094
:1005DC005FFE104B1B68002B11D10A4B02221A60D4
:1005EC000C4B05221A600B4B02225A6007E000BF2D
:1005FC0006E000BF04E000BF02E000BF00E000BF67
:10060C0000BF80BD8800002000080140940000203D
:10061C008C0000203000002080B500AFAB4B1B6875
:10062C00022B5CD1AA4B1B68002B02D0012B26D0CD
:10063C0056E000224FF42071A64801F01CFB012269
:10064C004FF4A061A34801F016FBA34B1B68A34A0F
:10065C0082FB03129210DB17D31A184600F0CEFB64
:10066C009D4B9B689D4A82FB03129210DB17D31A99
:10067C00184600F051FC964B01221A6030E0012222
:10068C004FF42071934801F0F6FA00224FF4A06168
:10069C00904801F0F0FA904B1A68904B83FB0213D0
:1006AC009910D317C91A0B469B000B445B00D11A47
:1006BC00084600F0A3FB884B9A68884B83FB021317
:1006CC009910D317C91A0B469B000B445B00D11A27
:1006DC00084600F021FC7E4B00221A6000E000BFAF
:1006EC007A4B1B68032B5CD1794B1B68002B02D017
:1006FC00012B26D056E000224FF42071754801F0F2
:10070C00BAFA01224FF4A061724801F0B4FA724BAC
:10071C001B68724A82FB03129210DB17D31A18461D
:10072C0000F06CFB6C4B5B686C4A82FB0312921002
:10073C00DB17D31A184600F0EFFB654B01221A6049
:10074C0030E001224FF42071624801F094FA00224B
:10075C004FF4A0615F4801F08EFA5F4B1A685F4B53
:10076C0083FB02139910D317C91A0B469B000B4439
:10077C005B00D11A084600F041FB574B5A68574BA7
:10078C0083FB02139910D317C91A0B469B000B4419
:10079C005B00D11A084600F0BFFB4D4B00221A60DB
:1007AC0000E000BF494B1B68042B5CD1484B1B6815
:1007BC00002B02D0012B26D056E000224FF42071E2
:1007CC00444801F058FA01224FF4A061414801F06D
:1007DC0052FA414B9B68414A82FB03129210DB1781
:1007EC00D31A184600F00AFB3B4B1B683B4A82FBB2
:1007FC0003129210DB17D31A184600F08DFB344B02
:10080C0001221A6030E001224FF42071314801F0CE
:10081C0032FA00224FF4A0612E4801F02CFA2E4B34
:10082C009A682E4B83FB02139910D317C91A0B46E7
:10083C009B000B445B00D11A084600F0DFFA264BF4
:10084C001A68264B83FB02139910D317C91A0B464F
:10085C009B000B445B00D11A084600F05DFB1C4B5F
:10086C0000221A6000E000BF184B1B68052B67D1F3
:10087C00174B1B68002B02D0012B31D061E00022FA
:10088C004FF42071134801F0F6F901224FF4A061E6
:10089C00104801F0F0F9104B5B68104A82FB031210
:1008AC009210DB17D31A184600F0A8FA0A4B1B68F3
:1008BC000A4A82FB03129210DB17D31A184600F077
:1008CC002BFB034B01221A603BE000BF8800002089
:1008DC00800000200008014030000020676666663A
:1008EC0001224FF42071184801F0C5F900224FF491
:1008FC00A061154801F0BFF9144B5A68144B83FBE7
:10090C0002139910D317C91A0B469B000B445B00BA
:10091C00D11A084600F072FA0C4B1A680C4B83FB88
:10092C0002139910D317C91A0B469B000B445B009A
:10093C00D11A084600F0F0FA064B00221A6000E0CB
:10094C0000BF00BF80BD00BF000801403000002088
:10095C00676666668000002080B500AF00227E21AD
:10096C00024801F088F900BF80BD00BF00080140BB
:10097C0080B500AF9D4B1B680C3B032B00F22B8109
:10098C0001A252F823F000BFA5090008DD090008F8
:10099C00890A00083D0B0008954B1B68012B02D1FE
:1009AC00924B01221A60FFF7CBFB0346012B40F060
:1009BC0014818E4B0D221A6042F2107000F09CFCD8
:1009CC004FF4FA7000F0B2FCFA2000F0C9FC04E11C
:1009DC00884B1B68012B07D11221874801F063F962
:1009EC004FF4FA7000F0A2FCFFF7BCFB0346012B9E
:1009FC0004D1824B1B680133804A1360FFF7C4FBA0
:100A0C000346012B15D17D4B1B68002B11DD7B4B55
:100A1C001B68632B0DDC794B1B68794A1360774B91
:100A2C001B68033B764A5360744B1B68023B744A49
:100A3C009360744B1B68012B04D100F0E9F8FA2089
:100A4C0000F08EFC6A4B1B68012B02D1674B012214
:100A5C001A60FFF775FB0346012B40F0C080634B17
:100A6C000E221A6042F2107000F046FC4FF4FA703D
:100A7C0000F05CFCFA2000F073FCB0E05D4B1B68EE
:100A8C00012B0CD124215C4801F00DF900225A21D4
:100A9C00594801F0F0F84FF4FA7000F047FCFFF7FA
:100AAC0061FB0346012B04D1574B1B680133564A9B
:100ABC001360FFF769FB0346012B15D1524B1B68E2
:100ACC00002B11DD504B1B68632B0DDC4E4B1B6850
:100ADC004B4A53604C4B1B680333494A13604A4BD7
:100AEC001B680133464A9360464B1B68012B04D1AB
:100AFC0000F08EF8FA2000F033FC3D4B1B68012B04
:100B0C0002D13A4B01221A60FFF71AFB0346012B64
:100B1C0067D1364B0F221A6042F2107000F0ECFBDA
:100B2C004FF4FA7000F002FCFA2000F019FC58E0C7
:100B3C00304B1B68012B0CD148212F4801F0B3F826
:100B4C00002236212C4801F096F84FF4FA7000F090
:100B5C00EDFBFFF707FB0346012B04D12B4B1B6866
:100B6C0001332A4A1360FFF70FFB0346012B15D103
:100B7C00264B1B68002B11DD244B1B68632B0DDCF3
:100B8C00224B1B681E4A9360204B1B6802331C4A85
:100B9C0013601E4B1B68013B194A5360194B1B68B1
:100BAC00012B04D100F034F8FA2000F0D9FB104BE3
:100BBC001B68012B02D10D4B01221A60FFF7C0FA02
:100BCC000346012B0FD1094B0C221A6042F2107014
:100BDC0000F092FB07E000BF06E000BF04E000BF9E
:100BEC0002E000BF00E000BF00BF80BD8800002015
:100BFC009C000020A4000020000801403C000020C4
:100C0C0030000020AC0000204000002044000020F8
:100C1C0080B500AF744B1B680D2B47D1734B1B6811
:100C2C00002B02D0012B1ED041E000224FF420718A
:100C3C006F4801F020F801224FF4A0616C4801F0DC
:100C4C001AF86C4B1B686C4A82FB03129210DB1770
:100C5C00D31A184600F0D2F8002000F05DF9634B6F
:100C6C0001221A6023E001224FF42071604801F048
:100C7C0002F800224FF4A0615D4800F0FCFF5D4BD0
:100C8C001A685D4B83FB02139910D317C91A0B46D4
:100C9C009B000B445B00D11A084600F0AFF8022011
:100CAC0000F03AF9514B00221A6000E000BF4E4BA5
:100CBC001B680E2B47D14D4B1B68002B02D0012B10
:100CCC001ED041E000224FF42071494800F0D3FFC0
:100CDC0001224FF4A061464800F0CDFF454B5B6804
:100CEC00454A82FB03129210DB17D31A184600F008
:100CFC0085F8002000F010F93C4B01221A6023E02B
:100D0C0001224FF420713A4800F0B5FF00224FF455
:100D1C00A061374800F0AFFF364B5A68364B83FB67
:100D2C0002139910D317C91A0B469B000B445B0096
:100D3C00D11A084600F062F8032000F0EDF82B4BB6
:100D4C0000221A6000E000BF274B1B680F2B47D115
:100D5C00264B1B68002B02D0012B1ED041E0002239
:100D6C004FF42071224800F086FF01224FF4A0615D
:100D7C001F4800F080FF1F4B9B681F4A82FB031229
:100D8C009210DB17D31A184600F038F8002000F048
:100D9C00C3F8164B01221A6023E001224FF4207194
:100DAC00134800F068FF00224FF4A061104800F0D7
:100DBC0062FF104B9A68104B83FB02139910D317E8
:100DCC00C91A0B469B000B445B00D11A084600F075
:100DDC0015F8042000F0A0F8044B00221A6000E083
:100DEC0000BF00BF80BD00BF880000208400002031
:100DFC0000080140300000206766666680B582B04E
:100E0C0000AF78607B68092B7FD801A252F823F0E1
:100E1C00450E00085B0E0008710E0008870E0008D6
:100E2C009D0E0008B30E0008C90E0008DF0E000866
:100E3C00F50E0008010F000801224021354800F092
:100E4C001AFF00223F21334800F015FF5EE001221B
:100E5C007921304800F00FFF002206212D4800F0C8
:100E6C000AFF53E0012224212A4800F004FF00224B
:100E7C005B21284800F0FFFE48E001223021254884
:100E8C0000F0F9FE00224F21224800F0F4FE3DE074
:100E9C00012219211F4800F0EEFE002266211D4898
:100EAC0000F0E9FE32E0012212211A4800F0E3FEC4
:100EBC0000226D21174800F0DEFE27E001220221FE
:100ECC00144800F0D8FE00227D21124800F0D3FE19
:100EDC001CE0012278210F4800F0CDFE00220721F2
:100EEC000C4800F0C8FE11E000227F21094800F0F8
:100EFC00C2FE0BE001221021064800F0BCFE0022CD
:100F0C006F21044800F0B7FE00E000BF00BF0837B7
:100F1C00BD4680BD000C014080B582B000AF78604A
:100F2C007B68092B00F2948001A252F823F000BFD9
:100F3C00650F00087F0F0008990F0008B30F000819
:100F4C00CD0F0008E70F0008011000081B10000867
:100F5C00351000084310000801224FF400513F489F
:100F6C0000F089FE00224FF4FC513C4800F083FE57
:100F7C006FE001224FF47251384800F07CFE0022E1
:100F8C004FF44071354800F076FE62E001224FF4D8
:100F9C009051324800F06FFE00224FF436512F482A
:100FAC0000F069FE55E001224FF4C0512B4800F0CF
:100FBC0062FE00224FF41E51284800F05CFE48E00F
:100FCC0001224FF44861254800F055FE00224FF4F1
:100FDC004C51224800F04FFE3BE001224FF41061CF
:100FEC001E4800F048FE00224FF45A511B4800F0F6
:100FFC0042FE2EE001224FF48071184800F03BFEB7
:10100C0000224FF47A51154800F035FE21E0012200
:10101C004FF47051114800F02EFE00224FF4C271B3
:10102C000E4800F028FE14E000224FF47E510B48CD
:10103C0000F021FE0DE001224FF40061074800F0A2
:10104C001AFE00224FF45E51044800F014FE00E03A
:10105C0000BF00BF0837BD4680BD00BF000C01407B
:10106C0080B500AF00F006FB00F014F800F09AF821
:10107C0000F04CF8054801F05BFA054B01221A60B0
:10108C00FFF7A8F9FFF774FCFAE700BFC4000020D3
:10109C008800002080B590B000AF07F1180328221B
:1010AC000021184601F0F4FD3B1D00221A605A6025
:1010BC009A60DA601A610223BB610123BB621023C0
:1010CC00FB6200237B6307F11803184600F004FE53
:1010DC000346002B01D000F0D5F80F237B600023D2
:1010EC00BB600023FB6000233B6100237B613B1D45
:1010FC000021184601F070F80346002B01D000F0D7
:10110C00C1F800BF4037BD4680BD000080B586B039
:10111C0000AF07F1080300221A605A609A60DA6087
:10112C003B4600221A605A601D4B4FF080421A60F9
:10113C001B4B41F63F725A60194B00229A60184BB8
:10114C000922DA60164B00221A61154B00229A61B3
:10115C00134801F09DF90346002B01D000F092F8E2
:10116C004FF48053BB6007F1080319460C4801F09B
:10117C001BFB0346002B01D000F084F800233B60DE
:10118C0000237B603B461946054801F0F3FC0346FF
:10119C00002B01D000F076F800BF1837BD4680BD9B
:1011AC00C400002080B586B000AF07F10803002210
:1011BC001A605A609A60DA60294B9B69284A43F09E
:1011CC0004039361264B9B6903F004037B607B68EB
:1011DC00234B9B69224A43F008039361204B9B6984
:1011EC0003F008033B603B68002240F6FE711D488B
:1011FC0000F041FD002243F6FF711B4800F03BFD5F
:10120C0040F6FE73BB600123FB6000233B610223AD
:10121C007B6107F108031946124800F09BFB43F66B
:10122C00FF73BB600123FB6000233B6102237B61E6
:10123C0007F1080319460C4800F08CFB4FF460438F
:10124C00BB600023FB6001233B6107F108031946D7
:10125C00044800F07FFB00BF1837BD4680BD00BFBF
:10126C000010024000080140000C014080B582B023
:10127C0000AF786000F08EF8FEF7BCFF00BF0837B7
:10128C00BD4680BD80B400AF72B600BFFEE7000063
:10129C0080B483B000AF7860074B1B687A6892FB10
:1012AC00F3F3064A1360064B00221A6000BF0C379A
:1012BC00BD4680BC704700BF480000209000002055
:1012CC008C00002080B483B000AF7860074B1B68A3
:1012DC007A6892FBF3F3064A1360064B00221A60FD
:1012EC0000BF0C37BD4680BC704700BF48000020D3
:1012FC00980000209400002080B483B000AF786088
:10130C00074B1B687A6892FBF3F3064A1360064B93
:10131C0000221A6000BF0C37BD4680BC704700BF6E
:10132C0048000020A00000209C00002080B483B066
:10133C0000AF7860074B1B687A6892FBF3F3064AA0
:10134C001360064B00221A6000BF0C37BD4680BCF0
:10135C00704700BF48000020A8000020A400002017
:10136C0080B483B000AF7860074B1B687A6892FB3F
:10137C00F3F3064A1360064B00221A6000BF0C37C9
:10138C00BD4680BC704700BF48000020B000002064
:10139C00AC00002080B400AF314B1B68002B0BDD80
:1013AC002F4B1B68013B2E4A13602D4B1B68002BE7
:1013BC0002DC2C4B01221A602B4B1B68002B0BDD23
:1013CC00294B1B68013B284A1360274B1B68002BD9
:1013DC0002DC264B01221A60254B1B68002B0BDD0F
:1013EC00234B1B68013B224A1360214B1B68002BCB
:1013FC0002DC204B01221A601F4B1B68002B0BDDFB
:10140C001D4B1B68013B1C4A13601B4B1B68002BBC
:10141C0002DC1A4B01221A60194B1B68002B0BDDE6
:10142C00174B1B68013B164A1360154B1B68002BAE
:10143C0002DC144B01221A60134B1B68002B0BDDD2
:10144C00114B1B68013B104A13600F4B1B68002BA0
:10145C0002DC0D4B01221A6000BFBD4680BC7047F8
:10146C00900000208C0000209800002094000020A8
:10147C00A00000209C000020A8000020A400002058
:10148C00B0000020AC000020B400002080B485B077
:10149C0000AF154B9B69144A43F001039361124B47
:1014AC009B6903F00103BB60BB680F4BDB690E4A01
:1014BC0043F08053D3610C4BDB6903F080537B60AA
:1014CC007B680A4B5B68FB60FB6823F0E063FB60A6
:1014DC00FB6843F08063FB60044AFB68536000BF09
:1014EC001437BD4680BC704700100240000001401C
:1014FC0080B584B000AF78607B681B68B3F1804F17
:10150C0013D10C4BDB690B4A43F00103D361094B3C
:10151C00DB6903F00103FB60FB68002200211C2047
:10152C0000F0E1F91C2000F0FAF900BF1037BD46BD
:10153C0080BD00BF0010024080B400AFFEE780B455
:10154C0000AFFEE780B400AFFEE780B400AFFEE76B
:10155C0080B400AFFEE780B400AF00BFBD4680BCD6
:10156C00704780B400AF00BFBD4680BC704780B4EC
:10157C0000AF00BFBD4680BC704780B500AF00F027
:10158C00BFF800BF80BD000080B500AF024801F07D
:10159C001BF800BF80BD00BFC400002080B400AFAA
:1015AC0000BFBD4680BC704780B500AF0122422110
:1015BC00044800F060FB00223C21024800F05BFB79
:1015CC0000BF80BD0008014080B500AF0122222180
:1015DC00044800F050FB00225C21024800F04BFB59
:1015EC0000BF80BD0008014080B500AF012218216A
:1015FC00044800F040FB00226621024800F03BFB4F
:10160C0000BF80BD0008014080B500AF012214214D
:10161C00044800F030FB00226A21024800F02BFB4A
:10162C0000BF80BD00080140FFF7B8FF0B480C4914
:10163C000C4A002302E0D458C4500433C4188C4222
:10164C00F9D3094A094C002301E013600432A24289
:10165C00FBD301F0F9FAFFF703FD704700000020FF
:10166C0058000020F02C0008580000201001002029
:10167C00FEE7000080B500AF084B1B68074A43F03B
:10168C0010031360032000F023F90F2000F008F87A
:10169C00FFF7FCFE0023184680BD00BF002002406F
:1016AC0080B582B000AF7860124B1A68124B1B7871
:1016BC0019464FF47A73B3FBF1F3B2FBF3F318460C
:1016CC0000F03BF90346002B01D001230EE07B68B0
:1016DC000F2B0AD8002279684FF0FF3000F003F985
:1016EC00064A7B681360002300E001231846083784
:1016FC00BD4680BD4C00002054000020500000204E
:10170C0080B400AF054B1B781A46054B1B6813447D
:10171C00034A136000BFBD4680BC704754000020D4
:10172C000C01002080B400AF024B1B681846BD466C
:10173C0080BC70470C01002080B485B000AF78608D
:10174C007B6803F00703FB600C4BDB68BB60BA687B
:10175C004FF6FF031340BB60FB681A02BB681343D0
:10176C0043F0BF6343F40033BB60044ABB68D360EF
:10177C0000BF1437BD4680BC704700BF00ED00E0D1
:10178C0080B400AF044BDB681B0A03F00703184658
:10179C00BD4680BC704700BF00ED00E080B483B054
:1017AC0000AF0346FB7197F90730002B0BDBFB797D
:1017BC0003F01F02064997F907305B09012000FA74
:1017CC0002F241F8232000BF0C37BD4680BC7047A5
:1017DC0000E100E080B483B000AF03463960FB71D8
:1017EC0097F90730002B0ADB3B68DAB20C4997F902
:1017FC0007301201D2B20B4483F800230AE03B6895
:10180C00DAB20849FB7903F00F03043B1201D2B2A0
:10181C000B441A7600BF0C37BD4680BC704700BF26
:10182C0000E100E000ED00E080B489B000AFF860AA
:10183C00B9607A60FB6803F00703FB61FB69C3F1D5
:10184C000703042B28BF0423BB61FB690433062B5D
:10185C0002D9FB69033B00E000237B614FF0FF32B0
:10186C00BB6902FA03F3DA43BB681A407B699A40FE
:10187C004FF0FF317B6901FA03F3D9437B680B40CE
:10188C00134318462437BD4680BC704780B582B0E0
:10189C0000AF78607B68013BB3F1807F01D30123FB
:1018AC000FE00A4A7B68013B53600F214FF0FF3079
:1018BC00FFF790FF054B00229A60044B07221A6039
:1018CC00002318460837BD4680BD00BF10E000E07D
:1018DC0080B582B000AF78607868FFF72DFF00BF4D
:1018EC000837BD4680BD80B586B000AF0346B960F1
:1018FC007A60FB7300237B61FFF742FF78617A68A3
:10190C00B9687869FFF790FF024697F90F301146D6
:10191C001846FFF75FFF00BF1837BD4680BD80B586
:10192C0082B000AF0346FB7197F907301846FFF7FA
:10193C0035FF00BF0837BD4680BD80B582B000AF13
:10194C0078607868FFF7A2FF034618460837BD4653
:10195C0080BD000080B48BB000AF7860396000238C
:10196C007B6200233B6248E101227B6A02FA03F3AB
:10197C00FB613B681B68FA691340BB61BA69FB6980
:10198C009A4240F037813B685B68A34A93425ED031
:10199C00A14A934275D8A14A934258D09F4A934288
:1019AC006FD89F4A934252D09D4A934269D89D4A20
:1019BC0093424CD09B4A934263D89B4A934246D065
:1019CC00994A93425DD8122B2AD8122B59D801A2CE
:1019DC0052F823F05B1A0008351A0008471A000861
:1019EC00891A00088F1A00088F1A00088F1A00082D
:1019FC008F1A00088F1A00088F1A00088F1A000817
:101A0C008F1A00088F1A00088F1A00088F1A000806
:101A1C008F1A00088F1A00083D1A0008511A000886
:101A2C00824A934213D02CE03B68DB683B6229E08E
:101A3C003B68DB6804333B6224E03B68DB680833BB
:101A4C003B621FE03B68DB680C333B621AE03B688F
:101A5C009B68002B02D104233B6213E03B689B681C
:101A6C00012B05D108233B627B68FA691A6109E0F6
:101A7C0008233B627B68FA695A6103E000233B62EE
:101A8C0000E000BFBB69FF2B01D87B6801E07B68DD
:101A9C0004337B61BB69FF2B02D87B6A9B0002E09D
:101AAC007B6A083B9B003B617B691A680F213B6991
:101ABC0001FA03F3DB431A40396A3B6901FA03F379
:101ACC001A437B691A603B685B6803F08053002BF8
:101ADC0000F09080564B9B69554A43F0010393618B
:101AEC00534B9B6903F00103BB60BB68514A7B6A93
:101AFC009B08023352F82330FB607B6A03F003032C
:101B0C009B000F2202FA03F3DB43FA681340FB60DD
:101B1C007B68494A93420DD07B68484A934207D070
:101B2C007B68474A934201D1022304E0032302E07D
:101B3C00012300E000237A6A02F003029200934032
:101B4C00FA681343FB603B497B6A9B080233FA68D3
:101B5C0041F823203B685B6803F48013002B06D00C
:101B6C00384B9A683749BB6913438B6006E0354B99
:101B7C009A68BB69DB43334913408B603B685B68F5
:101B8C0003F40013002B06D02E4BDA682D49BB69E9
:101B9C001343CB6006E02B4BDA68BB69DB43294966
:101BAC001340CB603B685B6803F40033002B06D01A
:101BBC00244B5A682349BB6913434B6006E0214B05
:101BCC005A68BB69DB431F4913404B603B685B6839
:101BDC0003F48033002B06D01A4B1A681949BB69E1
:101BEC0013430B6006E0174B1A68BB69DB431549BE
:101BFC0013400B607B6A01337B623B681A687B6A1B
:101C0C0022FA03F3002B7FF4AFAE00BF00BF2C37DA
:101C1C00BD4680BC704700BF000032100000311080
:101C2C000000221000002110000012100000111002
:101C3C00001002400000014000080140000C01406F
:101C4C00001001400004014080B485B000AF786002
:101C5C000B467B807B689A687B881340002B02D0F4
:101C6C000123FB7301E00023FB73FB7B1846143745
:101C7C00BD4680BC704780B483B000AF78600B4623
:101C8C007B8013467B707B78002B03D07A887B6833
:101C9C001A6103E07B881A047B681A6100BF0C3759
:101CAC00BD4680BC704780B485B000AF78600B46F1
:101CBC007B807B68DB68FB607A88FB6813401A04C6
:101CCC00FB68D9437B880B401A437B681A6100BFC1
:101CDC001437BD4680BC704780B586B000AF7860C5
:101CEC007B68002B01D101236CE27B681B6803F03D
:101CFC000103002B00F08780924B5B6803F00C0310
:101D0C00042B0CD08F4B5B6803F00C03082B12D107
:101D1C008C4B5B6803F48033B3F5803F0BD1894B5C
:101D2C001B6803F40033002B6CD07B685B68002BC2
:101D3C0068D1012346E27B685B68B3F5803F06D12E
:101D4C00804B1B687F4A43F4803313602EE07B6822
:101D5C005B68002B0CD17B4B1B687A4A23F48033D5
:101D6C001360784B1B68774A23F4802313601DE0C3
:101D7C007B685B68B3F5A02F0CD1724B1B68714A62
:101D8C0043F4802313606F4B1B686E4A43F480331B
:101D9C0013600BE06B4B1B686A4A23F480331360AF
:101DAC00684B1B68674A23F4802313607B685B686D
:101DBC00002B13D0FFF7B6FC386108E0FFF7B2FC3C
:101DCC0002463B69D31A642B01D90323FAE15D4B1C
:101DDC001B6803F40033002BF0D014E0FFF7A2FCD7
:101DEC00386108E0FFF79EFC02463B69D31A642B6E
:101DFC0001D90323E6E1534B1B6803F40033002B9A
:101E0C00F0D100E000BF7B681B6803F00203002BDD
:101E1C0063D04C4B5B6803F00C03002B0BD0494B8D
:101E2C005B6803F00C03082B1CD1464B5B6803F476
:101E3C008033002B16D1434B1B6803F00203002B9D
:101E4C0005D07B681B69012B01D00123BAE13D4B06
:101E5C001B6823F0F8027B685B69DB00394913438C
:101E6C000B603AE07B681B69002B20D0364B0122BB
:101E7C001A60FFF757FC386108E0FFF753FC024685
:101E8C003B69D31A022B01D903239BE12D4B1B6811
:101E9C0003F00203002BF0D02A4B1B6823F0F8024E
:101EAC007B685B69DB00274913430B6015E0264B0D
:101EBC0000221A60FFF736FC386108E0FFF732FCAD
:101ECC0002463B69D31A022B01D903237AE11D4B3D
:101EDC001B6803F00203002BF0D17B681B6803F036
:101EEC000803002B3AD07B689B69002B19D0174B49
:101EFC0001221A60FFF716FC386108E0FFF712FCAC
:101F0C0002463B69D31A022B01D903235AE10D4B2C
:101F1C005B6A03F00203002BF0D0012000F09AFA68
:101F2C001CE00A4B00221A60FFF7FCFB38610FE043
:101F3C00FFF7F8FB02463B69D31A022B08D903239F
:101F4C0040E100BF001002400000424280044242C7
:101F5C009E4B5B6A03F00203002BE9D17B681B6884
:101F6C0003F00403002B00F0A6800023FB75974BB5
:101F7C00DB6903F08053002B0DD1944BDB69934A42
:101F8C0043F08053D361914BDB6903F08053BB600A
:101F9C00BB680123FB758E4B1B6803F48073002B0D
:101FAC0018D18B4B1B688A4A43F480731360FFF77C
:101FBC00B9FB386108E0FFF7B5FB02463B69D31A61
:101FCC00642B01D90323FDE0814B1B6803F4807360
:101FDC00002BF0D07B68DB68012B06D17B4B1B6A96
:101FEC007A4A43F0010313622DE07B68DB68002B17
:101FFC000CD1764B1B6A754A23F001031362734BA9
:10200C001B6A724A23F0040313621CE07B68DB68D2
:10201C00052B0CD16D4B1B6A6C4A43F00403136205
:10202C006A4B1B6A694A43F0010313620BE0674B6E
:10203C001B6A664A23F001031362644B1B6A634AF2
:10204C0023F0040313627B68DB68002B15D0FFF7C9
:10205C0069FB38610AE0FFF765FB02463B69D31A5E
:10206C0041F28832934201D90323ABE0574B1B6AF0
:10207C0003F00203002BEED014E0FFF753FB3861A2
:10208C000AE0FFF74FFB02463B69D31A41F2883254
:10209C00934201D9032395E04C4B1B6A03F00203D6
:1020AC00002BEED1FB7D012B05D1484BDB69474A58
:1020BC0023F08053D3617B68DB69002B00F08180B7
:1020CC00424B5B6803F00C03082B61D07B68DB6927
:1020DC00022B46D13F4B00221A60FFF723FB3861DD
:1020EC0008E0FFF71FFB02463B69D31A022B01D90C
:1020FC00032367E0354B1B6803F00073002BF0D112
:10210C007B681B6AB3F5803F08D1304B5B6823F4C6
:10211C0000327B689B682D4913434B602B4B5B68EB
:10212C0023F474127B68196A7B685B6A0B4327493A
:10213C0013434B60274B01221A60FFF7F3FA386107
:10214C0008E0FFF7EFFA02463B69D31A022B01D9DC
:10215C00032337E01D4B1B6803F00073002BF0D0FA
:10216C002FE01C4B00221A60FFF7DCFA386108E004
:10217C00FFF7D8FA02463B69D31A022B01D9032385
:10218C0020E0124B1B6803F00073002BF0D118E019
:10219C007B68DB69012B01D1012313E00B4B5B68DE
:1021AC00FB60FB6803F480327B681B6A9A4206D1A1
:1021BC00FB6803F470127B685B6A9A4201D00123BE
:1021CC0000E0002318461837BD4680BD00100240C1
:1021DC00007000406000424280B584B000AF78606F
:1021EC0039607B68002B01D10123D0E06A4B1B685E
:1021FC0003F007033A689A4210D9674B1B6823F027
:10220C00070265493B6813430B60634B1B6803F083
:10221C0007033A689A4201D00123B8E07B681B6837
:10222C0003F00203002B20D07B681B6803F004032F
:10223C00002B05D0594B5B68584A43F4E06353605C
:10224C007B681B6803F00803002B05D0534B5B68BD
:10225C00524A43F460535360504B5B6823F0F002D6
:10226C007B689B684D4913434B607B681B6803F08C
:10227C000103002B40D07B685B68012B07D1474BD7
:10228C001B6803F40033002B15D101237FE07B681E
:10229C005B68022B07D1414B1B6803F00073002BCA
:1022AC0009D1012373E03D4B1B6803F00203002BA3
:1022BC0001D101236BE0394B5B6823F003027B688F
:1022CC005B68364913434B60FFF72CFAF8600AE061
:1022DC00FFF728FA0246FB68D31A41F28832934280
:1022EC0001D9032353E02D4B5B6803F00C027B6890
:1022FC005B689B009A42EBD1274B1B6803F00703EA
:10230C003A689A4210D2244B1B6823F007022249E8
:10231C003B6813430B60204B1B6803F007033A68C0
:10232C009A4201D0012332E07B681B6803F004035E
:10233C00002B08D0194B5B6823F4E0627B68DB68E8
:10234C00164913434B607B681B6803F00803002B92
:10235C0009D0124B5B6823F460527B681B69DB006D
:10236C000E4913434B6000F021F802460B4B5B689F
:10237C001B0903F00F030A49CB5C22FA03F3094A49
:10238C001360094B1B681846FFF78AF9002318469F
:10239C001037BD4680BD00BF002002400010024037
:1023AC00C42C00084C0000205000002080B487B0E2
:1023BC0000AF0023FB600023BB6000237B61002384
:1023CC007B6000233B611E4B5B68FB60FB6803F08A
:1023DC000C03042B02D0082B03D027E0194B3B61D4
:1023EC0027E0FB689B0C03F00F03174AD35C7B6060
:1023FC00FB6803F48033002B10D0114B5B685B0C33
:10240C0003F00103114AD35CBB607B680D4A02FBED
:10241C0003F2BB68B2FBF3F37B6104E07B680C4A0C
:10242C0002FB03F37B617B693B6102E0054B3B6183
:10243C0000BF3B6918461C37BD4680BC704700BFC7
:10244C000010024000127A00D42C0008E42C000882
:10245C0000093D0080B485B000AF78600A4B1B6862
:10246C000A4AA2FB03235B0A7A6802FB03F3FB60B4
:10247C0000BFFB685A1EFA60002BF9D100BF00BFE9
:10248C001437BD4680BC70474C000020D34D621001
:10249C0080B582B000AF78607B68002B01D101233E
:1024AC0041E07B6893F83D30DBB2002B06D17B68B2
:1024BC00002283F83C207868FFF71AF87B68022228
:1024CC0083F83D207B681A687B68043319461046F4
:1024DC0000F056FA7B68012283F846207B680122C3
:1024EC0083F83E207B68012283F83F207B68012221
:1024FC0083F840207B68012283F841207B6801220D
:10250C0083F842207B68012283F843207B680122F8
:10251C0083F844207B68012283F845207B680122E4
:10252C0083F83D20002318460837BD4680BD0000C7
:10253C0080B485B000AF78607B6893F83D30DBB237
:10254C00012B01D0012335E07B68022283F83D206A
:10255C007B681B68DA687B681B6842F00102DA60F2
:10256C007B681B68164A934209D07B681B68B3F1E1
:10257C00804F04D07B681B68124A934211D17B6850
:10258C001B689B6803F00703FB60FB68062B10D0ED
:10259C007B681B681A687B681B6842F001021A6032
:1025AC0007E07B681B681A687B681B6842F00102B5
:1025BC001A60002318461437BD4680BC704700BF14
:1025CC00002C01400004004080B584B000AF78605E
:1025DC007B681B68DB68FB607B681B681B69BB60E6
:1025EC00BB6803F00203002B20D0FB6803F002034E
:1025FC00002B1BD07B681B686FF002021A617B6892
:10260C0001221A777B681B689B6903F00303002B7C
:10261C0003D0786800F098F905E0786800F08BF941
:10262C00786800F09AF97B6800221A77BB6803F08F
:10263C000403002B20D0FB6803F00403002B1BD0F9
:10264C007B681B686FF004021A617B6802221A77A0
:10265C007B681B689B6903F44073002B03D078687C
:10266C0000F072F905E0786800F065F9786800F020
:10267C0074F97B6800221A77BB6803F00803002BFF
:10268C0020D0FB6803F00803002B1BD07B681B6871
:10269C006FF008021A617B6804221A777B681B684A
:1026AC00DB6903F00303002B03D0786800F04CF9CE
:1026BC0005E0786800F03FF9786800F04EF97B6827
:1026CC0000221A77BB6803F01003002B20D0FB68A4
:1026DC0003F01003002B1BD07B681B686FF01002FB
:1026EC001A617B6808221A777B681B68DB6903F424
:1026FC004073002B03D0786800F026F905E0786869
:10270C0000F019F9786800F028F97B6800221A7734
:10271C00BB6803F00103002B0CD0FB6803F0010332
:10272C00002B07D07B681B686FF001021A61786878
:10273C00FEF79CFDBB6803F08003002B0CD0FB68FC
:10274C0003F08003002B07D07B681B686FF08002BE
:10275C001A61786800F06FFABB6803F04003002B35
:10276C000CD0FB6803F04003002B07D07B681B6880
:10277C006FF040021A61786800F0F8F8BB6803F05B
:10278C002003002B0CD0FB6803F02003002B07D098
:10279C007B681B686FF020021A61786800F042FABF
:1027AC0000BF1037BD4680BD80B584B000AF7860E7
:1027BC0039600023FB737B6893F83C30012B01D10B
:1027CC000223B4E07B68012283F83C207B68022260
:1027DC0083F83D207B681B689B68BB60BB6823F05B
:1027EC007703BB60BB6823F47F43BB607B681B68CB
:1027FC00BA689A603B681B68B3F5005F3ED0B3F5CE
:10280C00005F00F28780B3F5805F00F08680B3F53F
:10281C00805F7FD8702B1AD0702B7BD8602B50D058
:10282C00602B77D8502B3CD0502B73D8402B58D0E2
:10283C00402B6FD8302B64D0302B6BD8202B60D032
:10284C00202B67D8002B5CD0102B5AD062E07B6811
:10285C0018683B6899683B685A683B68DB6800F00D
:10286C006AF97B681B689B68BB60BB6843F07703A5
:10287C00BB607B681B68BA689A604FE07B6818681D
:10288C003B6899683B685A683B68DB6800F053F911
:10289C007B681B689A687B681B6842F480429A606C
:1028AC003CE07B6818683B6859683B68DB681A46F3
:1028BC0000F0CAF87B681B685021184600F021F91B
:1028CC002CE07B6818683B6859683B68DB681A46E3
:1028DC0000F0E8F87B681B686021184600F011F9DD
:1028EC001CE07B6818683B6859683B68DB681A46D3
:1028FC0000F0AAF87B681B684021184600F001F92B
:10290C000CE07B681A683B681B681946104600F09F
:10291C00F8F803E00123FB7300E000BF7B680122A1
:10292C0083F83D207B68002283F83C20FB7B184613
:10293C001037BD4680BD80B483B000AF786000BF57
:10294C000C37BD4680BC704780B483B000AF786054
:10295C0000BF0C37BD4680BC704780B483B000AF5D
:10296C00786000BF0C37BD4680BC704780B483B024
:10297C0000AF786000BF0C37BD4680BC70470000CC
:10298C0080B485B000AF786039607B681B68FB60F1
:10299C007B682B4A934207D07B68B3F1804F03D0FE
:1029AC007B68284A934208D1FB6823F07003FB60D4
:1029BC003B685B68FA681343FB607B68204A934270
:1029CC0007D07B68B3F1804F03D07B681D4A9342DC
:1029DC0008D1FB6823F44073FB603B68DB68FA6842
:1029EC001343FB60FB6823F080023B685B69134375
:1029FC00FB607B68FA681A603B689A687B68DA62ED
:102A0C003B681A687B689A627B680D4A934203D1D3
:102A1C003B681A697B681A637B6801225A617B6880
:102A2C001B6903F00103002B05D07B681B6923F0A5
:102A3C0001027B681A6100BF1437BD4680BC704729
:102A4C00002C01400004004080B487B000AFF86057
:102A5C00B9607A60FB681B6A7B61FB681B6A23F0B8
:102A6C000102FB681A62FB689B693B613B6923F0BE
:102A7C00F0033B617B681B013A6913433B617B6943
:102A8C0023F00A037B617A69BB6813437B61FB68A3
:102A9C003A699A61FB687A691A6200BF1C37BD46B5
:102AAC0080BC704780B487B000AFF860B9607A60C2
:102ABC00FB681B6A7B61FB681B6A23F01002FB68D6
:102ACC001A62FB689B693B613B6923F470433B6171
:102ADC007B681B033A6913433B617B6923F0A003BA
:102AEC007B61BB681B017A6913437B61FB683A69A4
:102AFC009A61FB687A691A6200BF1C37BD4680BCBC
:102B0C00704780B485B000AF786039607B689B6893
:102B1C00FB60FB6823F07003FB603A68FB681343AF
:102B2C0043F00703FB607B68FA689A6000BF1437B8
:102B3C00BD4680BC704780B487B000AFF860B96008
:102B4C007A603B60FB689B687B617B6923F47F4305
:102B5C007B613B681A027B681A43BB6813437A6932
:102B6C0013437B61FB687A699A6000BF1C37BD46D2
:102B7C0080BC704780B485B000AF786039607B68EA
:102B8C0093F83C30012B01D1022341E07B680122F8
:102B9C0083F83C207B68022283F83D207B681B680D
:102BAC005B68FB607B681B689B68BB60FB6823F001
:102BBC007003FB603B681B68FA681343FB607B681F
:102BCC001B68FA685A607B681B68144A934209D0E8
:102BDC007B681B68B3F1804F04D07B681B68104A7C
:102BEC0093420CD1BB6823F08003BB603B685B68ED
:102BFC00BA681343BB607B681B68BA689A607B68D1
:102C0C00012283F83D207B68002283F83C200023BE
:102C1C0018461437BD4680BC704700BF002C0140DD
:102C2C000004004080B483B000AF786000BF0C3764
:102C3C00BD4680BC704780B483B000AF786000BFE5
:102C4C000C37BD4680BC704770B500260C4D0D4C42
:102C5C00641BA410A64209D100F022F800260A4DEC
:102C6C000A4C641BA410A64205D170BD55F8043B58
:102C7C0098470136EEE755F8043B98470136F2E7E2
:102C8C00E82C0008E82C0008E82C0008EC2C0008C4
:102C9C0003460244934200D1704703F8011BF9E745
:102CAC00F8B500BFF8BC08BC9E467047F8B500BF2D
:082CBC00F8BC08BC9E467047FD
:102CC40000000000000000000102030406070809D8
:102CD40002030405060708090A0B0C0D0E0F101059
:042CE40001020000E9
:042CE80031010008AE
:042CEC000D010008CE
:102CF00001000000010000000100000001000000D0
:102D000001000000010000000100000001000000BF
:102D100001000000010000000100000001000000AF
:102D20000500000002000000030000000500000094
:102D300002000000030000000A00000000127A00F8
:082D400010000000010000007A
:0400000508001635A4
:00000001FF
